{
  "_format": "hh-sol-artifact-1",
  "contractName": "NeuroChain",
  "sourceName": "contracts/NeuroChain.sol",
  "abi": [
    {
      "anonymous": false,
      "inputs": [
        {
          "indexed": true,
          "internalType": "string",
          "name": "modelHash",
          "type": "string"
        },
        {
          "indexed": false,
          "internalType": "string",
          "name": "name",
          "type": "string"
        },
        {
          "indexed": true,
          "internalType": "address",
          "name": "author",
          "type": "address"
        }
      ],
      "name": "ModelRegistered",
      "type": "event"
    },
    {
      "inputs": [],
      "name": "getModels",
      "outputs": [
        {
          "components": [
            {
              "internalType": "string",
              "name": "name",
              "type": "string"
            },
            {
              "internalType": "string",
              "name": "author",
              "type": "string"
            },
            {
              "internalType": "string",
              "name": "modelHash",
              "type": "string"
            },
            {
              "internalType": "uint256",
              "name": "timestamp",
              "type": "uint256"
            },
            {
              "internalType": "address",
              "name": "sender",
              "type": "address"
            }
          ],
          "internalType": "struct NeuroChain.Model[]",
          "name": "",
          "type": "tuple[]"
        }
      ],
      "stateMutability": "view",
      "type": "function"
    },
    {
      "inputs": [
        {
          "internalType": "string",
          "name": "",
          "type": "string"
        }
      ],
      "name": "hashExists",
      "outputs": [
        {
          "internalType": "bool",
          "name": "",
          "type": "bool"
        }
      ],
      "stateMutability": "view",
      "type": "function"
    },
    {
      "inputs": [
        {
          "internalType": "uint256",
          "name": "",
          "type": "uint256"
        }
      ],
      "name": "models",
      "outputs": [
        {
          "internalType": "string",
          "name": "name",
          "type": "string"
        },
        {
          "internalType": "string",
          "name": "author",
          "type": "string"
        },
        {
          "internalType": "string",
          "name": "modelHash",
          "type": "string"
        },
        {
          "internalType": "uint256",
          "name": "timestamp",
          "type": "uint256"
        },
        {
          "internalType": "address",
          "name": "sender",
          "type": "address"
        }
      ],
      "stateMutability": "view",
      "type": "function"
    },
    {
      "inputs": [
        {
          "internalType": "string",
          "name": "_name",
          "type": "string"
        },
        {
          "internalType": "string",
          "name": "_author",
          "type": "string"
        },
        {
          "internalType": "string",
          "name": "_modelHash",
          "type": "string"
        }
      ],
      "name": "registerModel",
      "outputs": [],
      "stateMutability": "nonpayable",
      "type": "function"
    }
  ],
  "bytecode": "0x608060405234801561001057600080fd5b50611186806100206000396000f3fe608060405234801561001057600080fd5b506004361061004c5760003560e01c806309817d45146100515780636a030ca91461006f5780637715fcc3146100a35780639871e510146100bf575b600080fd5b6100596100ef565b60405161006691906109d7565b60405180910390f35b61008960048036038101906100849190610a39565b610364565b60405161009a959493929190610ace565b60405180910390f35b6100bd60048036038101906100b89190610c6b565b610562565b005b6100d960048036038101906100d49190610d12565b610771565b6040516100e69190610d76565b60405180910390f35b60606001805480602002602001604051908101604052809291908181526020016000905b8282101561035b57838290600052602060002090600502016040518060a001604052908160008201805461014690610dc0565b80601f016020809104026020016040519081016040528092919081815260200182805461017290610dc0565b80156101bf5780601f10610194576101008083540402835291602001916101bf565b820191906000526020600020905b8154815290600101906020018083116101a257829003601f168201915b505050505081526020016001820180546101d890610dc0565b80601f016020809104026020016040519081016040528092919081815260200182805461020490610dc0565b80156102515780601f1061022657610100808354040283529160200191610251565b820191906000526020600020905b81548152906001019060200180831161023457829003601f168201915b5050505050815260200160028201805461026a90610dc0565b80601f016020809104026020016040519081016040528092919081815260200182805461029690610dc0565b80156102e35780601f106102b8576101008083540402835291602001916102e3565b820191906000526020600020905b8154815290600101906020018083116102c657829003601f168201915b50505050508152602001600382015481526020016004820160009054906101000a900473ffffffffffffffffffffffffffffffffffffffff1673ffffffffffffffffffffffffffffffffffffffff1673ffffffffffffffffffffffffffffffffffffffff168152505081526020019060010190610113565b50505050905090565b6001818154811061037457600080fd5b906000526020600020906005020160009150905080600001805461039790610dc0565b80601f01602080910402602001604051908101604052809291908181526020018280546103c390610dc0565b80156104105780601f106103e557610100808354040283529160200191610410565b820191906000526020600020905b8154815290600101906020018083116103f357829003601f168201915b50505050509080600101805461042590610dc0565b80601f016020809104026020016040519081016040528092919081815260200182805461045190610dc0565b801561049e5780601f106104735761010080835404028352916020019161049e565b820191906000526020600020905b81548152906001019060200180831161048157829003601f168201915b5050505050908060020180546104b390610dc0565b80601f01602080910402602001604051908101604052809291908181526020018280546104df90610dc0565b801561052c5780601f106105015761010080835404028352916020019161052c565b820191906000526020600020905b81548152906001019060200180831161050f57829003601f168201915b5050505050908060030154908060040160009054906101000a900473ffffffffffffffffffffffffffffffffffffffff16905085565b6000816040516105729190610e2d565b908152602001604051809103902060009054906101000a900460ff16156105ce576040517f08c379a00000000000000000000000000000000000000000000000000000000081526004016105c590610e90565b60405180910390fd5b60006040518060a001604052808581526020018481526020018381526020014281526020013373ffffffffffffffffffffffffffffffffffffffff16815250905060018190806001815401808255809150506001900390600052602060002090600502016000909190919091506000820151816000019081610650919061105c565b506020820151816001019081610666919061105c565b50604082015181600201908161067c919061105c565b506060820151816003015560808201518160040160006101000a81548173ffffffffffffffffffffffffffffffffffffffff021916908373ffffffffffffffffffffffffffffffffffffffff160217905550505060016000836040516106e29190610e2d565b908152602001604051809103902060006101000a81548160ff0219169083151502179055503373ffffffffffffffffffffffffffffffffffffffff168260405161072c9190610e2d565b60405180910390207f08122f366048fc5b16ffc09c226ab5848dda9d7c6ce5284e10427b01594d487e86604051610763919061112e565b60405180910390a350505050565b6000818051602081018201805184825260208301602085012081835280955050505050506000915054906101000a900460ff1681565b600081519050919050565b600082825260208201905092915050565b6000819050602082019050919050565b600081519050919050565b600082825260208201905092915050565b60005b8381101561080d5780820151818401526020810190506107f2565b60008484015250505050565b6000601f19601f8301169050919050565b6000610835826107d3565b61083f81856107de565b935061084f8185602086016107ef565b61085881610819565b840191505092915050565b6000819050919050565b61087681610863565b82525050565b600073ffffffffffffffffffffffffffffffffffffffff82169050919050565b60006108a78261087c565b9050919050565b6108b78161089c565b82525050565b600060a08301600083015184820360008601526108da828261082a565b915050602083015184820360208601526108f4828261082a565b9150506040830151848203604086015261090e828261082a565b9150506060830151610923606086018261086d565b50608083015161093660808601826108ae565b508091505092915050565b600061094d83836108bd565b905092915050565b6000602082019050919050565b600061096d826107a7565b61097781856107b2565b935083602082028501610989856107c3565b8060005b858110156109c557848403895281516109a68582610941565b94506109b183610955565b925060208a0199505060018101905061098d565b50829750879550505050505092915050565b600060208201905081810360008301526109f18184610962565b905092915050565b6000604051905090565b600080fd5b600080fd5b610a1681610863565b8114610a2157600080fd5b50565b600081359050610a3381610a0d565b92915050565b600060208284031215610a4f57610a4e610a03565b5b6000610a5d84828501610a24565b91505092915050565b600082825260208201905092915050565b6000610a82826107d3565b610a8c8185610a66565b9350610a9c8185602086016107ef565b610aa581610819565b840191505092915050565b610ab981610863565b82525050565b610ac88161089c565b82525050565b600060a0820190508181036000830152610ae88188610a77565b90508181036020830152610afc8187610a77565b90508181036040830152610b108186610a77565b9050610b1f6060830185610ab0565b610b2c6080830184610abf565b9695505050505050565b600080fd5b600080fd5b7f4e487b7100000000000000000000000000000000000000000000000000000000600052604160045260246000fd5b610b7882610819565b810181811067ffffffffffffffff82111715610b9757610b96610b40565b5b80604052505050565b6000610baa6109f9565b9050610bb68282610b6f565b919050565b600067ffffffffffffffff821115610bd657610bd5610b40565b5b610bdf82610819565b9050602081019050919050565b82818337600083830152505050565b6000610c0e610c0984610bbb565b610ba0565b905082815260208101848484011115610c2a57610c29610b3b565b5b610c35848285610bec565b509392505050565b600082601f830112610c5257610c51610b36565b5b8135610c62848260208601610bfb565b91505092915050565b600080600060608486031215610c8457610c83610a03565b5b600084013567ffffffffffffffff811115610ca257610ca1610a08565b5b610cae86828701610c3d565b935050602084013567ffffffffffffffff811115610ccf57610cce610a08565b5b610cdb86828701610c3d565b925050604084013567ffffffffffffffff811115610cfc57610cfb610a08565b5b610d0886828701610c3d565b9150509250925092565b600060208284031215610d2857610d27610a03565b5b600082013567ffffffffffffffff811115610d4657610d45610a08565b5b610d5284828501610c3d565b91505092915050565b60008115159050919050565b610d7081610d5b565b82525050565b6000602082019050610d8b6000830184610d67565b92915050565b7f4e487b7100000000000000000000000000000000000000000000000000000000600052602260045260246000fd5b60006002820490506001821680610dd857607f821691505b602082108103610deb57610dea610d91565b5b50919050565b600081905092915050565b6000610e07826107d3565b610e118185610df1565b9350610e218185602086016107ef565b80840191505092915050565b6000610e398284610dfc565b915081905092915050565b7f4d6f64656c20616c726561647920726567697374657265642100000000000000600082015250565b6000610e7a601983610a66565b9150610e8582610e44565b602082019050919050565b60006020820190508181036000830152610ea981610e6d565b9050919050565b60008190508160005260206000209050919050565b60006020601f8301049050919050565b600082821b905092915050565b600060088302610f127fffffffffffffffffffffffffffffffffffffffffffffffffffffffffffffffff82610ed5565b610f1c8683610ed5565b95508019841693508086168417925050509392505050565b6000819050919050565b6000610f59610f54610f4f84610863565b610f34565b610863565b9050919050565b6000819050919050565b610f7383610f3e565b610f87610f7f82610f60565b848454610ee2565b825550505050565b600090565b610f9c610f8f565b610fa7818484610f6a565b505050565b5b81811015610fcb57610fc0600082610f94565b600181019050610fad565b5050565b601f82111561101057610fe181610eb0565b610fea84610ec5565b81016020851015610ff9578190505b61100d61100585610ec5565b830182610fac565b50505b505050565b600082821c905092915050565b600061103360001984600802611015565b1980831691505092915050565b600061104c8383611022565b9150826002028217905092915050565b611065826107d3565b67ffffffffffffffff81111561107e5761107d610b40565b5b6110888254610dc0565b611093828285610fcf565b600060209050601f8311600181146110c657600084156110b4578287015190505b6110be8582611040565b865550611126565b601f1984166110d486610eb0565b60005b828110156110fc578489015182556001820191506020850194506020810190506110d7565b868310156111195784890151611115601f891682611022565b8355505b6001600288020188555050505b505050505050565b600060208201905081810360008301526111488184610a77565b90509291505056fea26469706673582212204039d4a110cb20ac2fb51654054f63fcd2255812bdab6b3b17d4ed248442f49c64736f6c63430008180033",
  "linkReferences": {},
  "deployedLinkReferences": {}
}